{
  "contractName": "Piggybank",
  "abi": [
    {
      "constant": true,
      "inputs": [
        {
          "name": "",
          "type": "address"
        }
      ],
      "name": "userBalance",
      "outputs": [
        {
          "name": "",
          "type": "uint256"
        }
      ],
      "payable": false,
      "stateMutability": "view",
      "type": "function"
    },
    {
      "constant": true,
      "inputs": [
        {
          "name": "",
          "type": "address"
        }
      ],
      "name": "userInfo",
      "outputs": [
        {
          "name": "firstName",
          "type": "string"
        },
        {
          "name": "lastName",
          "type": "string"
        },
        {
          "name": "ad",
          "type": "address"
        },
        {
          "name": "userBal",
          "type": "uint256"
        },
        {
          "name": "userId",
          "type": "uint256"
        },
        {
          "name": "numberOfAccounts",
          "type": "uint256"
        }
      ],
      "payable": false,
      "stateMutability": "view",
      "type": "function"
    },
    {
      "constant": true,
      "inputs": [
        {
          "name": "",
          "type": "address"
        }
      ],
      "name": "adToId",
      "outputs": [
        {
          "name": "",
          "type": "uint256"
        }
      ],
      "payable": false,
      "stateMutability": "view",
      "type": "function"
    },
    {
      "constant": false,
      "inputs": [
        {
          "name": "_firstName",
          "type": "string"
        },
        {
          "name": "_lastName",
          "type": "string"
        }
      ],
      "name": "createAccount",
      "outputs": [],
      "payable": false,
      "stateMutability": "nonpayable",
      "type": "function"
    },
    {
      "constant": true,
      "inputs": [],
      "name": "showID",
      "outputs": [
        {
          "name": "",
          "type": "uint256"
        }
      ],
      "payable": false,
      "stateMutability": "view",
      "type": "function"
    },
    {
      "constant": false,
      "inputs": [
        {
          "name": "_amount",
          "type": "uint256"
        }
      ],
      "name": "depositMoney",
      "outputs": [],
      "payable": false,
      "stateMutability": "nonpayable",
      "type": "function"
    },
    {
      "constant": false,
      "inputs": [
        {
          "name": "_amount",
          "type": "uint256"
        }
      ],
      "name": "withdrawMoney",
      "outputs": [],
      "payable": false,
      "stateMutability": "nonpayable",
      "type": "function"
    },
    {
      "constant": true,
      "inputs": [],
      "name": "showBalance",
      "outputs": [
        {
          "name": "",
          "type": "uint256"
        }
      ],
      "payable": false,
      "stateMutability": "view",
      "type": "function"
    },
    {
      "constant": true,
      "inputs": [],
      "name": "showName",
      "outputs": [
        {
          "name": "",
          "type": "string"
        }
      ],
      "payable": false,
      "stateMutability": "view",
      "type": "function"
    }
  ],
  "bytecode": "0x6080604052600060015534801561001557600080fd5b50610ff4806100256000396000f3fe608060405234801561001057600080fd5b50600436106100935760003560e01c80635487692111610066578063548769211461043657806381b2d07b14610464578063ae18c52b14610482578063c5d2bea2146104b0578063ed96ce2e1461050857610093565b80630103c92b1461009857806319289287146100f05780631959a00214610242578063223c7049146103b3575b600080fd5b6100da600480360360208110156100ae57600080fd5b81019080803573ffffffffffffffffffffffffffffffffffffffff169060200190929190505050610526565b6040518082815260200191505060405180910390f35b6102406004803603604081101561010657600080fd5b810190808035906020019064010000000081111561012357600080fd5b82018360208201111561013557600080fd5b8035906020019184600183028401116401000000008311171561015757600080fd5b91908080601f016020809104026020016040519081016040528093929190818152602001838380828437600081840152601f19601f820116905080830192505050505050509192919290803590602001906401000000008111156101ba57600080fd5b8201836020820111156101cc57600080fd5b803590602001918460018302840111640100000000831117156101ee57600080fd5b91908080601f016020809104026020016040519081016040528093929190818152602001838380828437600081840152601f19601f82011690508083019250505050505050919291929050505061053e565b005b6102846004803603602081101561025857600080fd5b81019080803573ffffffffffffffffffffffffffffffffffffffff169060200190929190505050610917565b6040518080602001806020018773ffffffffffffffffffffffffffffffffffffffff1673ffffffffffffffffffffffffffffffffffffffff168152602001868152602001858152602001848152602001838103835289818151815260200191508051906020019080838360005b8381101561030c5780820151818401526020810190506102f1565b50505050905090810190601f1680156103395780820380516001836020036101000a031916815260200191505b50838103825288818151815260200191508051906020019080838360005b83811015610372578082015181840152602081019050610357565b50505050905090810190601f16801561039f5780820380516001836020036101000a031916815260200191505b509850505050505050505060405180910390f35b6103bb610aa3565b6040518080602001828103825283818151815260200191508051906020019080838360005b838110156103fb5780820151818401526020810190506103e0565b50505050905090810190601f1680156104285780820380516001836020036101000a031916815260200191505b509250505060405180910390f35b6104626004803603602081101561044c57600080fd5b8101908080359060200190929190505050610ba6565b005b61046c610d6c565b6040518082815260200191505060405180910390f35b6104ae6004803603602081101561049857600080fd5b8101908080359060200190929190505050610db3565b005b6104f2600480360360208110156104c657600080fd5b81019080803573ffffffffffffffffffffffffffffffffffffffff169060200190929190505050610ec4565b6040518082815260200191505060405180910390f35b610510610edc565b6040518082815260200191505060405180910390f35b60036020528060005260406000206000915090505481565b6001600560003373ffffffffffffffffffffffffffffffffffffffff1673ffffffffffffffffffffffffffffffffffffffff16815260200190815260200160002054106105f3576040517f08c379a000000000000000000000000000000000000000000000000000000000815260040180806020018281038252601c8152602001807f596f7520616c7265616479206861766520616e206163636f756e74210000000081525060200191505060405180910390fd5b60006040518060c001604052808481526020018381526020013373ffffffffffffffffffffffffffffffffffffffff1681526020016000815260200160015481526020016001815250908060018154018082558091505090600182039060005260206000209060060201600090919290919091506000820151816000019080519060200190610683929190610f23565b5060208201518160010190805190602001906106a0929190610f23565b5060408201518160020160006101000a81548173ffffffffffffffffffffffffffffffffffffffff021916908373ffffffffffffffffffffffffffffffffffffffff160217905550606082015181600301556080820151816004015560a082015181600501555050506040518060c001604052808381526020018281526020013373ffffffffffffffffffffffffffffffffffffffff1681526020016000815260200160015481526020016001815250600460003373ffffffffffffffffffffffffffffffffffffffff1673ffffffffffffffffffffffffffffffffffffffff16815260200190815260200160002060008201518160000190805190602001906107ab929190610f23565b5060208201518160010190805190602001906107c8929190610f23565b5060408201518160020160006101000a81548173ffffffffffffffffffffffffffffffffffffffff021916908373ffffffffffffffffffffffffffffffffffffffff160217905550606082015181600301556080820151816004015560a08201518160050155905050600154600260003373ffffffffffffffffffffffffffffffffffffffff1673ffffffffffffffffffffffffffffffffffffffff168152602001908152602001600020819055506000600360003373ffffffffffffffffffffffffffffffffffffffff1673ffffffffffffffffffffffffffffffffffffffff168152602001908152602001600020819055506001600560003373ffffffffffffffffffffffffffffffffffffffff1673ffffffffffffffffffffffffffffffffffffffff168152602001908152602001600020819055506001600081548092919060010191905055505050565b6004602052806000526040600020600091509050806000018054600181600116156101000203166002900480601f0160208091040260200160405190810160405280929190818152602001828054600181600116156101000203166002900480156109c35780601f10610998576101008083540402835291602001916109c3565b820191906000526020600020905b8154815290600101906020018083116109a657829003601f168201915b505050505090806001018054600181600116156101000203166002900480601f016020809104026020016040519081016040528092919081815260200182805460018160011615610100020316600290048015610a615780601f10610a3657610100808354040283529160200191610a61565b820191906000526020600020905b815481529060010190602001808311610a4457829003601f168201915b5050505050908060020160009054906101000a900473ffffffffffffffffffffffffffffffffffffffff16908060030154908060040154908060050154905086565b60606000600260003373ffffffffffffffffffffffffffffffffffffffff1673ffffffffffffffffffffffffffffffffffffffff16815260200190815260200160002054905060008181548110610af657fe5b90600052602060002090600602016000018054600181600116156101000203166002900480601f016020809104026020016040519081016040528092919081815260200182805460018160011615610100020316600290048015610b9b5780601f10610b7057610100808354040283529160200191610b9b565b820191906000526020600020905b815481529060010190602001808311610b7e57829003601f168201915b505050505091505090565b80600360003373ffffffffffffffffffffffffffffffffffffffff1673ffffffffffffffffffffffffffffffffffffffff168152602001908152602001600020541015610c5b576040517f08c379a000000000000000000000000000000000000000000000000000000000815260040180806020018281038252601c8152602001807f596f7520646f6e2774206861766520656e6f7567682066756e6473210000000081525060200191505060405180910390fd5b80600360003373ffffffffffffffffffffffffffffffffffffffff1673ffffffffffffffffffffffffffffffffffffffff168152602001908152602001600020600082825403925050819055506000600260003373ffffffffffffffffffffffffffffffffffffffff1673ffffffffffffffffffffffffffffffffffffffff1681526020019081526020016000205490508160008281548110610cfa57fe5b90600052602060002090600602016003016000828254039250508190555081600460003373ffffffffffffffffffffffffffffffffffffffff1673ffffffffffffffffffffffffffffffffffffffff168152602001908152602001600020600301600082825403925050819055505050565b6000600360003373ffffffffffffffffffffffffffffffffffffffff1673ffffffffffffffffffffffffffffffffffffffff16815260200190815260200160002054905090565b80600360003373ffffffffffffffffffffffffffffffffffffffff1673ffffffffffffffffffffffffffffffffffffffff168152602001908152602001600020600082825401925050819055506000600260003373ffffffffffffffffffffffffffffffffffffffff1673ffffffffffffffffffffffffffffffffffffffff1681526020019081526020016000205490508160008281548110610e5257fe5b90600052602060002090600602016003016000828254019250508190555081600460003373ffffffffffffffffffffffffffffffffffffffff1673ffffffffffffffffffffffffffffffffffffffff168152602001908152602001600020600301600082825401925050819055505050565b60026020528060005260406000206000915090505481565b6000600260003373ffffffffffffffffffffffffffffffffffffffff1673ffffffffffffffffffffffffffffffffffffffff16815260200190815260200160002054905090565b828054600181600116156101000203166002900490600052602060002090601f016020900481019282601f10610f6457805160ff1916838001178555610f92565b82800160010185558215610f92579182015b82811115610f91578251825591602001919060010190610f76565b5b509050610f9f9190610fa3565b5090565b610fc591905b80821115610fc1576000816000905550600101610fa9565b5090565b9056fea165627a7a72305820eb6982f7381365a006ffb4ba632b12d656b0d98ff1588529409a7bfa5772ca4f0029",
  "source": "pragma solidity >=0.4.21 <0.6.0;\n\ncontract Piggybank{\n\n    struct AccountHolder{\n        string firstName;\n        string lastName;\n        address ad;\n        uint256 userBal;\n        uint256 userId;\n        uint256 numberOfAccounts;\n    }\n\n    AccountHolder[] accountholders;\n\n    uint256 accountCount = 0;\n\n    mapping(address => uint256) public adToId;\n    mapping(address => uint256) public userBalance;\n    mapping(address => AccountHolder) public userInfo;\n    mapping(address => uint256) howManyAccounts;\n\n    function createAccount(string memory _firstName, string memory _lastName) public{\n        require(howManyAccounts[msg.sender] < 1, \"You already have an account!\");\n        accountholders.push(AccountHolder(_firstName, _lastName, msg.sender, 0, accountCount, 1));\n        userInfo[msg.sender] = AccountHolder(_firstName, _lastName, msg.sender, 0, accountCount, 1);\n        adToId[msg.sender] = accountCount;\n        userBalance[msg.sender] = 0;\n        howManyAccounts[msg.sender] = 1;\n        accountCount++;\n    }\n\n    function showID() public view returns(uint256){\n        return adToId[msg.sender];\n    }\n\n    function depositMoney(uint256 _amount) public{\n        userBalance[msg.sender] += _amount;\n        uint256 userIdentity = adToId[msg.sender];\n        accountholders[userIdentity].userBal += _amount;\n        userInfo[msg.sender].userBal += _amount;\n    }\n\n    function withdrawMoney(uint256 _amount) public{\n        require(userBalance[msg.sender] >= _amount, \"You don't have enough funds!\");\n        userBalance[msg.sender] -= _amount;\n        uint256 userIdentity = adToId[msg.sender];\n        accountholders[userIdentity].userBal -= _amount;\n        userInfo[msg.sender].userBal -= _amount;\n    }\n\n    function showBalance() public view returns (uint256){\n        return userBalance[msg.sender];\n    }\n\n    function showName() public view returns (string memory){\n        uint256 userIdentity = adToId[msg.sender];\n        return accountholders[userIdentity].firstName;\n    }\n\n}",
  "sourcePath": "/Users/AaronKo/Desktop/Solidity/piggyBank/contracts/PiggyBank.sol",
  "compiler": {
    "name": "solc",
    "version": "0.5.8+commit.23d335f2.Emscripten.clang"
  },
  "schemaVersion": "3.0.11",
  "updatedAt": "2019-07-23T22:50:13.502Z",
  "devdoc": {
    "methods": {}
  },
  "userdoc": {
    "methods": {}
  }
}